:060000000C9439000C9481
:10000600D7000C9400000C9400000C9400000C9493
:1000160000000C9450010C9400000C9400000C9409
:1000260000000C9400000C9400000C9400000C944A
:1000360000000C9400000C9400000C9400000C943A
:1000460000000C9400000C9400000C940000457213
:10005600726F72000000000053756363657373006E
:10006600000080C00200600168000000F894EE27DE
:10007600ECBBF1E0FBBFEBBFE5BF8DE0A2E0BB2729
:10008600ED938A95E9F780E094E0A0E6ED93019779
:10009600E9F7EAE6F0E085919591009761F0A59180
:1000A600B59105901590BF01F00105900D9201974D
:1000B600E1F7FB01F0CFEFE5EDBFE4E0EEBFC0E610
:1000C600D1E00C9475011A939F9B06C09E9904C0BB
:1000D6009D9B02C09C9B01C002C010E362C09F9919
:1000E60006C09E9904C09D9902C09C9901C002C099
:1000F60011E357C09F9906C09E9904C09D9B02C0FC
:100106009C9B01C002C012E34CC09F9906C09E99F9
:1001160004C09D9B02C09C9901C002C013E341C06C
:100126009F9906C09E9B04C09D9902C09C9B01C0DE
:1001360002C014E336C09F9906C09E9B04C09D99D9
:1001460002C09C9901C002C015E32BC09F9906C04E
:100156009E9B04C09D9B02C09C9B01C002C016E3EF
:1001660020C09F9906C09E9B04C09D9B02C09C997F
:1001760001C002C017E315C09F9B06C09E9904C02C
:100186009D9902C09C9B01C002C018E30AC09F9BB8
:1001960006C09E9904C09D9902C09C9901C001C0E9
:1001A60019E3E12F199108950A921A92FA926A9325
:1001B6007A938A939A93AA93BA93EA93FA93EFB7A8
:1001C600EA931A9380DF1E2FA12F01D1B19942C065
:1001D6004FD1EA5CFF4FDF01E12F0E948B0248D12D
:1001E600BF01EC5FFF4FDF010E9477020E2EDB019D
:1001F600AA5CBF4F0E947702E01559F02A978AE061
:10020600A0E0B0E0E4E5F0E00E949C0236D1A99AB5
:1002160014C02ED131960E9483022AD10F0132D109
:10022600E015F105B1F42A978AE0A0E0B0E0EEE52A
:10023600F0E00E949C0221D1AA9ADE01DDD0A8EE50
:10024600B3E00E946902E5B3E070E5BB20D1B5D00A
:100256002A9614C0A2E0B0E00E947302E130A0E04A
:10026600FA0761F40FD1EC5FFF4FDF01E12F0E9427
:100276008B0208D131960E94830209D11991E99126
:10028600EFBFF991E991B991A991999189917991E4
:100296006991F9901990099018958A939A93AA935F
:1002A600BA93EA93FA93EFB7EA93A89AA2E0B0E07A
:1002B6000E947302309769F4A0E0B0E0E0E0F0E05D
:1002C6000E948302E4D0A2E0B0E0E1E0F0E00E9408
:1002D6008302E991EFBFF991E991B991A9919991B9
:1002E60089911895E0E0EABBEBBBE7BBE8BBE7E02A
:1002F600E4BBE0E0E5BBE1BBE2BBEFBDEFECEEBD8E
:10030600E4EAEDBDE2E7CAD0E0E1E9BFEBB7E064BD
:10031600EBBFE3E0E5BFE0E0E4BFE0E4EABFA0E175
:100326007CD07894B998B19B05C0E0E0EFBDEDE0D4
:10033600EEBD14C0A2E0B0E0E0E0F0E00E9483026F
:10034600E5B3E070E5BB39D0B19908C0E0E0EFBD98
:10035600EFE0EEBDE0E0EDBDA1D0F6CFE4CFFFCFFC
:10036600AA93EBB3EF70AE2FE881E07FEA2BEBBBED
:1003760084E18A95F1F7DA9A84E18A95F1F7DA98B9
:1003860084E18A95F1F772C0AA93A881E9DFE88132
:10039600E295E883A881E4DF88EC8A95F1F766C0E8
:1003A600AA93E881F0E0E05AFE4FE081A981AE0F02
:1003B600EBDF5980488022960895A2E07BD0ACE01E
:1003C600E3DFA1E077D0E0E04E2E5E2E0895AA93FB
:1003D600A881AA3011F0571448F0E0E0EA9343945C
:1003E600A42DDEDFA881AA3009F440C05394D89A20
:1003F600A881CADFD8983AC0BA93AA931A93A9815A
:10040600BA81ED91A983BA831E2FE03019F0A12F8E
:10041600DEDFF5CF188123960895AA93EAB3E06F3D
:10042600EABBD29AD09AD19ADA98D898D998788095
:10043600E881E058E0936201E881E054E0936301CB
:10044600A4E1B0E00E9469023AD039D038D0A0E2E7
:1004560087DF8CE291E00197F1F7A8E295DFA4E04F
:1004660093DFA5E891DFA6E08FDFA7DF2196089549
:10047600A8E6B0E00E9473020895A8ECB0E00E94DE
:1004860069029BCFA0E0B0E00E9473020895A8E63F
:10049600B0E0E0E0F0E00E9483020895ECBDE0E009
:1004A600E7BDE6BDEAE5EBBDEDE8EABDE0E0E9BDA6
:1004B600E8BD089569DFA3E0B0E00C946902A0E30B
:1004C6004FDF8CE291E00197F1F70895109639F02D
:1004D600A89588EB9BE00197F1F71197C9F7089566
:1004E600119602D0FE2F1197E199FECFFF93FFB729
:1004F600F894AEBBBFBBE09AEDB3FFBFFF91089582
:1005060007D01196EF93EF2F03D0EF91119708952F
:10051600E19B02C0A895FCCF9FB7F894AEBBBFBBCA
:10052600E09A8DB3E81719F0EDBBE29AE19A9FBF06
:100536000895AC0FBD1F05900D928A95E1F70895B9
:00000001FF
